{
	"globalVariables.sol": {
		"Updated": {
			"abi": [
				{
					"inputs": [],
					"name": "updatesBalance",
					"outputs": [],
					"stateMutability": "nonpayable",
					"type": "function"
				}
			],
			"devdoc": {
				"kind": "dev",
				"methods": {},
				"version": 1
			},
			"evm": {
				"assembly": "    /* \"globalVariables.sol\":310:479  contract Updated{\r... */\n  mstore(0x40, 0x80)\n  callvalue\n  dup1\n  iszero\n  tag_1\n  jumpi\n  0x00\n  dup1\n  revert\ntag_1:\n  pop\n  dataSize(sub_0)\n  dup1\n  dataOffset(sub_0)\n  0x00\n  codecopy\n  0x00\n  return\nstop\n\nsub_0: assembly {\n        /* \"globalVariables.sol\":310:479  contract Updated{\r... */\n      mstore(0x40, 0x80)\n      callvalue\n      dup1\n      iszero\n      tag_1\n      jumpi\n      0x00\n      dup1\n      revert\n    tag_1:\n      pop\n      jumpi(tag_2, lt(calldatasize, 0x04))\n      shr(0xe0, calldataload(0x00))\n      dup1\n      0x22a39bfc\n      eq\n      tag_3\n      jumpi\n    tag_2:\n      0x00\n      dup1\n      revert\n        /* \"globalVariables.sol\":333:476  function updatesBalance() public{\r... */\n    tag_3:\n      tag_4\n      tag_5\n      jump\t// in\n    tag_4:\n      stop\n    tag_5:\n        /* \"globalVariables.sol\":376:403  LedgerBalance ledgerBalance */\n      0x00\n        /* \"globalVariables.sol\":406:425  new LedgerBalance() */\n      mload(0x40)\n      tag_7\n      swap1\n      tag_8\n      jump\t// in\n    tag_7:\n      mload(0x40)\n      dup1\n      swap2\n      sub\n      swap1\n      0x00\n      create\n      dup1\n      iszero\n      dup1\n      iszero\n      tag_9\n      jumpi\n      returndatasize\n      0x00\n      dup1\n      returndatacopy\n      revert(0x00, returndatasize)\n    tag_9:\n      pop\n        /* \"globalVariables.sol\":376:425  LedgerBalance ledgerBalance = new LedgerBalance() */\n      swap1\n      pop\n        /* \"globalVariables.sol\":436:449  ledgerBalance */\n      dup1\n        /* \"globalVariables.sol\":436:464  ledgerBalance.updatesBalance */\n      0xffffffffffffffffffffffffffffffffffffffff\n      and\n      0x17c2b39f\n        /* \"globalVariables.sol\":465:467  30 */\n      0x1e\n        /* \"globalVariables.sol\":436:468  ledgerBalance.updatesBalance(30) */\n      mload(0x40)\n      dup3\n      0xffffffff\n      and\n      0xe0\n      shl\n      dup2\n      mstore\n      0x04\n      add\n      tag_10\n      swap2\n      swap1\n      tag_11\n      jump\t// in\n    tag_10:\n      0x00\n      mload(0x40)\n      dup1\n      dup4\n      sub\n      dup2\n      0x00\n      dup8\n      dup1\n      extcodesize\n      iszero\n      dup1\n      iszero\n      tag_12\n      jumpi\n      0x00\n      dup1\n      revert\n    tag_12:\n      pop\n      gas\n      call\n      iszero\n      dup1\n      iszero\n      tag_14\n      jumpi\n      returndatasize\n      0x00\n      dup1\n      returndatacopy\n      revert(0x00, returndatasize)\n    tag_14:\n      pop\n      pop\n      pop\n      pop\n        /* \"globalVariables.sol\":365:476  {\r... */\n      pop\n        /* \"globalVariables.sol\":333:476  function updatesBalance() public{\r... */\n      jump\t// out\n    tag_8:\n      dataSize(sub_0)\n      dup1\n      dataOffset(sub_0)\n      dup4\n      codecopy\n      add\n      swap1\n      jump\t// out\n        /* \"#utility.yul\":7:156   */\n    tag_16:\n        /* \"#utility.yul\":103:149   */\n      tag_18\n        /* \"#utility.yul\":143:148   */\n      dup2\n        /* \"#utility.yul\":103:149   */\n      tag_19\n      jump\t// in\n    tag_18:\n        /* \"#utility.yul\":98:101   */\n      dup3\n        /* \"#utility.yul\":91:150   */\n      mstore\n        /* \"#utility.yul\":7:156   */\n      pop\n      pop\n      jump\t// out\n        /* \"#utility.yul\":162:402   */\n    tag_11:\n        /* \"#utility.yul\":264:268   */\n      0x00\n        /* \"#utility.yul\":302:304   */\n      0x20\n        /* \"#utility.yul\":291:300   */\n      dup3\n        /* \"#utility.yul\":287:305   */\n      add\n        /* \"#utility.yul\":279:305   */\n      swap1\n      pop\n        /* \"#utility.yul\":315:395   */\n      tag_21\n        /* \"#utility.yul\":392:393   */\n      0x00\n        /* \"#utility.yul\":381:390   */\n      dup4\n        /* \"#utility.yul\":377:394   */\n      add\n        /* \"#utility.yul\":368:374   */\n      dup5\n        /* \"#utility.yul\":315:395   */\n      tag_16\n      jump\t// in\n    tag_21:\n        /* \"#utility.yul\":162:402   */\n      swap3\n      swap2\n      pop\n      pop\n      jump\t// out\n        /* \"#utility.yul\":408:485   */\n    tag_22:\n        /* \"#utility.yul\":445:452   */\n      0x00\n        /* \"#utility.yul\":474:479   */\n      dup2\n        /* \"#utility.yul\":463:479   */\n      swap1\n      pop\n        /* \"#utility.yul\":408:485   */\n      swap2\n      swap1\n      pop\n      jump\t// out\n        /* \"#utility.yul\":491:613   */\n    tag_19:\n        /* \"#utility.yul\":550:559   */\n      0x00\n        /* \"#utility.yul\":583:607   */\n      tag_25\n        /* \"#utility.yul\":601:606   */\n      dup3\n        /* \"#utility.yul\":583:607   */\n      tag_22\n      jump\t// in\n    tag_25:\n        /* \"#utility.yul\":570:607   */\n      swap1\n      pop\n        /* \"#utility.yul\":491:613   */\n      swap2\n      swap1\n      pop\n      jump\t// out\n    stop\n\n    sub_0: assembly {\n            /* \"globalVariables.sol\":35:306  contract LedgerBalance{\r... */\n          mstore(0x40, 0x80)\n          callvalue\n          dup1\n          iszero\n          tag_1\n          jumpi\n          0x00\n          dup1\n          revert\n        tag_1:\n          pop\n          dataSize(sub_0)\n          dup1\n          dataOffset(sub_0)\n          0x00\n          codecopy\n          0x00\n          return\n        stop\n\n        sub_0: assembly {\n                /* \"globalVariables.sol\":35:306  contract LedgerBalance{\r... */\n              mstore(0x40, 0x80)\n              callvalue\n              dup1\n              iszero\n              tag_1\n              jumpi\n              0x00\n              dup1\n              revert\n            tag_1:\n              pop\n              jumpi(tag_2, lt(calldatasize, 0x04))\n              shr(0xe0, calldataload(0x00))\n              dup1\n              0x12065fe0\n              eq\n              tag_3\n              jumpi\n              dup1\n              0x17c2b39f\n              eq\n              tag_4\n              jumpi\n            tag_2:\n              0x00\n              dup1\n              revert\n                /* \"globalVariables.sol\":211:303  function getBalance() public view returns(uint){\r... */\n            tag_3:\n              tag_5\n              tag_6\n              jump\t// in\n            tag_5:\n              mload(0x40)\n              tag_7\n              swap2\n              swap1\n              tag_8\n              jump\t// in\n            tag_7:\n              mload(0x40)\n              dup1\n              swap2\n              sub\n              swap1\n              return\n                /* \"globalVariables.sol\":105:203  function updatesBalance(uint newBalance) public{\r... */\n            tag_4:\n              tag_9\n              0x04\n              dup1\n              calldatasize\n              sub\n              dup2\n              add\n              swap1\n              tag_10\n              swap2\n              swap1\n              tag_11\n              jump\t// in\n            tag_10:\n              tag_12\n              jump\t// in\n            tag_9:\n              stop\n                /* \"globalVariables.sol\":211:303  function getBalance() public view returns(uint){\r... */\n            tag_6:\n                /* \"globalVariables.sol\":253:257  uint */\n              0x00\n                /* \"globalVariables.sol\":276:283  balance */\n              dup1\n                /* \"globalVariables.sol\":276:295  balance[msg.sender] */\n              0x00\n                /* \"globalVariables.sol\":284:294  msg.sender */\n              caller\n                /* \"globalVariables.sol\":276:295  balance[msg.sender] */\n              0xffffffffffffffffffffffffffffffffffffffff\n              and\n              0xffffffffffffffffffffffffffffffffffffffff\n              and\n              dup2\n              mstore\n              0x20\n              add\n              swap1\n              dup2\n              mstore\n              0x20\n              add\n              0x00\n              keccak256\n              sload\n                /* \"globalVariables.sol\":269:295  return balance[msg.sender] */\n              swap1\n              pop\n                /* \"globalVariables.sol\":211:303  function getBalance() public view returns(uint){\r... */\n              swap1\n              jump\t// out\n                /* \"globalVariables.sol\":105:203  function updatesBalance(uint newBalance) public{\r... */\n            tag_12:\n                /* \"globalVariables.sol\":185:195  newBalance */\n              dup1\n                /* \"globalVariables.sol\":163:170  balance */\n              0x00\n                /* \"globalVariables.sol\":163:182  balance[msg.sender] */\n              dup1\n                /* \"globalVariables.sol\":171:181  msg.sender */\n              caller\n                /* \"globalVariables.sol\":163:182  balance[msg.sender] */\n              0xffffffffffffffffffffffffffffffffffffffff\n              and\n              0xffffffffffffffffffffffffffffffffffffffff\n              and\n              dup2\n              mstore\n              0x20\n              add\n              swap1\n              dup2\n              mstore\n              0x20\n              add\n              0x00\n              keccak256\n                /* \"globalVariables.sol\":163:195  balance[msg.sender] = newBalance */\n              dup2\n              swap1\n              sstore\n              pop\n                /* \"globalVariables.sol\":105:203  function updatesBalance(uint newBalance) public{\r... */\n              pop\n              jump\t// out\n                /* \"#utility.yul\":7:146   */\n            tag_16:\n                /* \"#utility.yul\":53:58   */\n              0x00\n                /* \"#utility.yul\":91:97   */\n              dup2\n                /* \"#utility.yul\":78:98   */\n              calldataload\n                /* \"#utility.yul\":69:98   */\n              swap1\n              pop\n                /* \"#utility.yul\":107:140   */\n              tag_18\n                /* \"#utility.yul\":134:139   */\n              dup2\n                /* \"#utility.yul\":107:140   */\n              tag_19\n              jump\t// in\n            tag_18:\n                /* \"#utility.yul\":7:146   */\n              swap3\n              swap2\n              pop\n              pop\n              jump\t// out\n                /* \"#utility.yul\":152:481   */\n            tag_11:\n                /* \"#utility.yul\":211:217   */\n              0x00\n                /* \"#utility.yul\":260:262   */\n              0x20\n                /* \"#utility.yul\":248:257   */\n              dup3\n                /* \"#utility.yul\":239:246   */\n              dup5\n                /* \"#utility.yul\":235:258   */\n              sub\n                /* \"#utility.yul\":231:263   */\n              slt\n                /* \"#utility.yul\":228:347   */\n              iszero\n              tag_21\n              jumpi\n                /* \"#utility.yul\":266:345   */\n              tag_22\n              tag_23\n              jump\t// in\n            tag_22:\n                /* \"#utility.yul\":228:347   */\n            tag_21:\n                /* \"#utility.yul\":386:387   */\n              0x00\n                /* \"#utility.yul\":411:464   */\n              tag_24\n                /* \"#utility.yul\":456:463   */\n              dup5\n                /* \"#utility.yul\":447:453   */\n              dup3\n                /* \"#utility.yul\":436:445   */\n              dup6\n                /* \"#utility.yul\":432:454   */\n              add\n                /* \"#utility.yul\":411:464   */\n              tag_16\n              jump\t// in\n            tag_24:\n                /* \"#utility.yul\":401:464   */\n              swap2\n              pop\n                /* \"#utility.yul\":357:474   */\n              pop\n                /* \"#utility.yul\":152:481   */\n              swap3\n              swap2\n              pop\n              pop\n              jump\t// out\n                /* \"#utility.yul\":487:605   */\n            tag_25:\n                /* \"#utility.yul\":574:598   */\n              tag_27\n                /* \"#utility.yul\":592:597   */\n              dup2\n                /* \"#utility.yul\":574:598   */\n              tag_28\n              jump\t// in\n            tag_27:\n                /* \"#utility.yul\":569:572   */\n              dup3\n                /* \"#utility.yul\":562:599   */\n              mstore\n                /* \"#utility.yul\":487:605   */\n              pop\n              pop\n              jump\t// out\n                /* \"#utility.yul\":611:833   */\n            tag_8:\n                /* \"#utility.yul\":704:708   */\n              0x00\n                /* \"#utility.yul\":742:744   */\n              0x20\n                /* \"#utility.yul\":731:740   */\n              dup3\n                /* \"#utility.yul\":727:745   */\n              add\n                /* \"#utility.yul\":719:745   */\n              swap1\n              pop\n                /* \"#utility.yul\":755:826   */\n              tag_30\n                /* \"#utility.yul\":823:824   */\n              0x00\n                /* \"#utility.yul\":812:821   */\n              dup4\n                /* \"#utility.yul\":808:825   */\n              add\n                /* \"#utility.yul\":799:805   */\n              dup5\n                /* \"#utility.yul\":755:826   */\n              tag_25\n              jump\t// in\n            tag_30:\n                /* \"#utility.yul\":611:833   */\n              swap3\n              swap2\n              pop\n              pop\n              jump\t// out\n                /* \"#utility.yul\":920:997   */\n            tag_28:\n                /* \"#utility.yul\":957:964   */\n              0x00\n                /* \"#utility.yul\":986:991   */\n              dup2\n                /* \"#utility.yul\":975:991   */\n              swap1\n              pop\n                /* \"#utility.yul\":920:997   */\n              swap2\n              swap1\n              pop\n              jump\t// out\n                /* \"#utility.yul\":1126:1243   */\n            tag_23:\n                /* \"#utility.yul\":1235:1236   */\n              0x00\n                /* \"#utility.yul\":1232:1233   */\n              dup1\n                /* \"#utility.yul\":1225:1237   */\n              revert\n                /* \"#utility.yul\":1249:1371   */\n            tag_19:\n                /* \"#utility.yul\":1322:1346   */\n              tag_38\n                /* \"#utility.yul\":1340:1345   */\n              dup2\n                /* \"#utility.yul\":1322:1346   */\n              tag_28\n              jump\t// in\n            tag_38:\n                /* \"#utility.yul\":1315:1320   */\n              dup2\n                /* \"#utility.yul\":1312:1347   */\n              eq\n                /* \"#utility.yul\":1302:1365   */\n              tag_39\n              jumpi\n                /* \"#utility.yul\":1361:1362   */\n              0x00\n                /* \"#utility.yul\":1358:1359   */\n              dup1\n                /* \"#utility.yul\":1351:1363   */\n              revert\n                /* \"#utility.yul\":1302:1365   */\n            tag_39:\n                /* \"#utility.yul\":1249:1371   */\n              pop\n              jump\t// out\n\n            auxdata: 0xa264697066735822122058355289c416760ddb902e70a28632988e66b6b1b7f855a3fcdd694459b96ec564736f6c63430008070033\n        }\n    }\n\n    auxdata: 0xa2646970667358221220605169b61b210e954c78663d46de1627e58ec7a97f91e984d117d85731fdb40f64736f6c63430008070033\n}\n",
				"bytecode": {
					"linkReferences": {},
					"object": "608060405234801561001057600080fd5b50610348806100206000396000f3fe608060405234801561001057600080fd5b506004361061002b5760003560e01c806322a39bfc14610030575b600080fd5b61003861003a565b005b6000604051610048906100d6565b604051809103906000f080158015610064573d6000803e3d6000fd5b5090508073ffffffffffffffffffffffffffffffffffffffff166317c2b39f601e6040518263ffffffff1660e01b81526004016100a191906100f2565b600060405180830381600087803b1580156100bb57600080fd5b505af11580156100cf573d6000803e3d6000fd5b5050505050565b6101e98061012a83390190565b6100ec81610117565b82525050565b600060208201905061010760008301846100e3565b92915050565b6000819050919050565b60006101228261010d565b905091905056fe608060405234801561001057600080fd5b506101c9806100206000396000f3fe608060405234801561001057600080fd5b50600436106100365760003560e01c806312065fe01461003b57806317c2b39f14610059575b600080fd5b610043610075565b6040516100509190610152565b60405180910390f35b610073600480360381019061006e9190610116565b6100bb565b005b60008060003373ffffffffffffffffffffffffffffffffffffffff1673ffffffffffffffffffffffffffffffffffffffff16815260200190815260200160002054905090565b806000803373ffffffffffffffffffffffffffffffffffffffff1673ffffffffffffffffffffffffffffffffffffffff1681526020019081526020016000208190555050565b6000813590506101108161017c565b92915050565b60006020828403121561012c5761012b610177565b5b600061013a84828501610101565b91505092915050565b61014c8161016d565b82525050565b60006020820190506101676000830184610143565b92915050565b6000819050919050565b600080fd5b6101858161016d565b811461019057600080fd5b5056fea264697066735822122058355289c416760ddb902e70a28632988e66b6b1b7f855a3fcdd694459b96ec564736f6c63430008070033a2646970667358221220605169b61b210e954c78663d46de1627e58ec7a97f91e984d117d85731fdb40f64736f6c63430008070033",
					"opcodes": "PUSH1 0x80 PUSH1 0x40 MSTORE CALLVALUE DUP1 ISZERO PUSH2 0x10 JUMPI PUSH1 0x0 DUP1 REVERT JUMPDEST POP PUSH2 0x348 DUP1 PUSH2 0x20 PUSH1 0x0 CODECOPY PUSH1 0x0 RETURN INVALID PUSH1 0x80 PUSH1 0x40 MSTORE CALLVALUE DUP1 ISZERO PUSH2 0x10 JUMPI PUSH1 0x0 DUP1 REVERT JUMPDEST POP PUSH1 0x4 CALLDATASIZE LT PUSH2 0x2B JUMPI PUSH1 0x0 CALLDATALOAD PUSH1 0xE0 SHR DUP1 PUSH4 0x22A39BFC EQ PUSH2 0x30 JUMPI JUMPDEST PUSH1 0x0 DUP1 REVERT JUMPDEST PUSH2 0x38 PUSH2 0x3A JUMP JUMPDEST STOP JUMPDEST PUSH1 0x0 PUSH1 0x40 MLOAD PUSH2 0x48 SWAP1 PUSH2 0xD6 JUMP JUMPDEST PUSH1 0x40 MLOAD DUP1 SWAP2 SUB SWAP1 PUSH1 0x0 CREATE DUP1 ISZERO DUP1 ISZERO PUSH2 0x64 JUMPI RETURNDATASIZE PUSH1 0x0 DUP1 RETURNDATACOPY RETURNDATASIZE PUSH1 0x0 REVERT JUMPDEST POP SWAP1 POP DUP1 PUSH20 0xFFFFFFFFFFFFFFFFFFFFFFFFFFFFFFFFFFFFFFFF AND PUSH4 0x17C2B39F PUSH1 0x1E PUSH1 0x40 MLOAD DUP3 PUSH4 0xFFFFFFFF AND PUSH1 0xE0 SHL DUP2 MSTORE PUSH1 0x4 ADD PUSH2 0xA1 SWAP2 SWAP1 PUSH2 0xF2 JUMP JUMPDEST PUSH1 0x0 PUSH1 0x40 MLOAD DUP1 DUP4 SUB DUP2 PUSH1 0x0 DUP8 DUP1 EXTCODESIZE ISZERO DUP1 ISZERO PUSH2 0xBB JUMPI PUSH1 0x0 DUP1 REVERT JUMPDEST POP GAS CALL ISZERO DUP1 ISZERO PUSH2 0xCF JUMPI RETURNDATASIZE PUSH1 0x0 DUP1 RETURNDATACOPY RETURNDATASIZE PUSH1 0x0 REVERT JUMPDEST POP POP POP POP POP JUMP JUMPDEST PUSH2 0x1E9 DUP1 PUSH2 0x12A DUP4 CODECOPY ADD SWAP1 JUMP JUMPDEST PUSH2 0xEC DUP2 PUSH2 0x117 JUMP JUMPDEST DUP3 MSTORE POP POP JUMP JUMPDEST PUSH1 0x0 PUSH1 0x20 DUP3 ADD SWAP1 POP PUSH2 0x107 PUSH1 0x0 DUP4 ADD DUP5 PUSH2 0xE3 JUMP JUMPDEST SWAP3 SWAP2 POP POP JUMP JUMPDEST PUSH1 0x0 DUP2 SWAP1 POP SWAP2 SWAP1 POP JUMP JUMPDEST PUSH1 0x0 PUSH2 0x122 DUP3 PUSH2 0x10D JUMP JUMPDEST SWAP1 POP SWAP2 SWAP1 POP JUMP INVALID PUSH1 0x80 PUSH1 0x40 MSTORE CALLVALUE DUP1 ISZERO PUSH2 0x10 JUMPI PUSH1 0x0 DUP1 REVERT JUMPDEST POP PUSH2 0x1C9 DUP1 PUSH2 0x20 PUSH1 0x0 CODECOPY PUSH1 0x0 RETURN INVALID PUSH1 0x80 PUSH1 0x40 MSTORE CALLVALUE DUP1 ISZERO PUSH2 0x10 JUMPI PUSH1 0x0 DUP1 REVERT JUMPDEST POP PUSH1 0x4 CALLDATASIZE LT PUSH2 0x36 JUMPI PUSH1 0x0 CALLDATALOAD PUSH1 0xE0 SHR DUP1 PUSH4 0x12065FE0 EQ PUSH2 0x3B JUMPI DUP1 PUSH4 0x17C2B39F EQ PUSH2 0x59 JUMPI JUMPDEST PUSH1 0x0 DUP1 REVERT JUMPDEST PUSH2 0x43 PUSH2 0x75 JUMP JUMPDEST PUSH1 0x40 MLOAD PUSH2 0x50 SWAP2 SWAP1 PUSH2 0x152 JUMP JUMPDEST PUSH1 0x40 MLOAD DUP1 SWAP2 SUB SWAP1 RETURN JUMPDEST PUSH2 0x73 PUSH1 0x4 DUP1 CALLDATASIZE SUB DUP2 ADD SWAP1 PUSH2 0x6E SWAP2 SWAP1 PUSH2 0x116 JUMP JUMPDEST PUSH2 0xBB JUMP JUMPDEST STOP JUMPDEST PUSH1 0x0 DUP1 PUSH1 0x0 CALLER PUSH20 0xFFFFFFFFFFFFFFFFFFFFFFFFFFFFFFFFFFFFFFFF AND PUSH20 0xFFFFFFFFFFFFFFFFFFFFFFFFFFFFFFFFFFFFFFFF AND DUP2 MSTORE PUSH1 0x20 ADD SWAP1 DUP2 MSTORE PUSH1 0x20 ADD PUSH1 0x0 KECCAK256 SLOAD SWAP1 POP SWAP1 JUMP JUMPDEST DUP1 PUSH1 0x0 DUP1 CALLER PUSH20 0xFFFFFFFFFFFFFFFFFFFFFFFFFFFFFFFFFFFFFFFF AND PUSH20 0xFFFFFFFFFFFFFFFFFFFFFFFFFFFFFFFFFFFFFFFF AND DUP2 MSTORE PUSH1 0x20 ADD SWAP1 DUP2 MSTORE PUSH1 0x20 ADD PUSH1 0x0 KECCAK256 DUP2 SWAP1 SSTORE POP POP JUMP JUMPDEST PUSH1 0x0 DUP2 CALLDATALOAD SWAP1 POP PUSH2 0x110 DUP2 PUSH2 0x17C JUMP JUMPDEST SWAP3 SWAP2 POP POP JUMP JUMPDEST PUSH1 0x0 PUSH1 0x20 DUP3 DUP5 SUB SLT ISZERO PUSH2 0x12C JUMPI PUSH2 0x12B PUSH2 0x177 JUMP JUMPDEST JUMPDEST PUSH1 0x0 PUSH2 0x13A DUP5 DUP3 DUP6 ADD PUSH2 0x101 JUMP JUMPDEST SWAP2 POP POP SWAP3 SWAP2 POP POP JUMP JUMPDEST PUSH2 0x14C DUP2 PUSH2 0x16D JUMP JUMPDEST DUP3 MSTORE POP POP JUMP JUMPDEST PUSH1 0x0 PUSH1 0x20 DUP3 ADD SWAP1 POP PUSH2 0x167 PUSH1 0x0 DUP4 ADD DUP5 PUSH2 0x143 JUMP JUMPDEST SWAP3 SWAP2 POP POP JUMP JUMPDEST PUSH1 0x0 DUP2 SWAP1 POP SWAP2 SWAP1 POP JUMP JUMPDEST PUSH1 0x0 DUP1 REVERT JUMPDEST PUSH2 0x185 DUP2 PUSH2 0x16D JUMP JUMPDEST DUP2 EQ PUSH2 0x190 JUMPI PUSH1 0x0 DUP1 REVERT JUMPDEST POP JUMP INVALID LOG2 PUSH5 0x6970667358 0x22 SLT KECCAK256 PC CALLDATALOAD MSTORE DUP10 0xC4 AND PUSH23 0xDDB902E70A28632988E66B6B1B7F855A3FCDD694459B9 PUSH15 0xC564736F6C63430008070033A26469 PUSH17 0x667358221220605169B61B210E954C7866 RETURNDATASIZE CHAINID 0xDE AND 0x27 0xE5 DUP15 0xC7 0xA9 PUSH32 0x91E984D117D85731FDB40F64736F6C6343000807003300000000000000000000 "
				},
				"gasEstimates": {
					"creation": {
						"codeDepositCost": "168000",
						"executionCost": "214",
						"totalCost": "168214"
					},
					"external": {
						"updatesBalance()": "infinite"
					}
				},
				"methodIdentifiers": {
					"updatesBalance()": "22a39bfc"
				}
			},
			"storageLayout": {
				"storage": [],
				"types": null
			},
			"userdoc": {
				"kind": "user",
				"methods": {},
				"version": 1
			}
		}
	}
}